:020000040000FA
:0400000059EF0DF0B7
:08000800B2EF01F0D9CFE5FFD2
:10001000E1CFD9FF00C0E5FF01C0E5FF02C0E5FF69
:1000200003C0E5FF04C0E5FF05C0E5FF06C0E5FF2E
:100030000F015151070F006E000E0F015221016E8A
:10004000000E0F015321026E00C0E9FF01C0F3FF53
:10005000025039EC0DF0036E03503A0A27E1300EDE
:10006000E56E00C0E9FF01C0F3FF025065EC0DF042
:100070000F015151060F006E000E0F015221016E4B
:10008000000E0F015321026E00C0E9FF01C0F3FF13
:10009000025039EC0DF0036E032A03C0E5FF00C0E7
:1000A000E9FF01C0F3FF025065EC0DF00F01515163
:1000B000060F006E000E0F015221016E000E0F019F
:1000C0005321026E00C0E9FF01C0F3FF025039EC7A
:1000D0000DF0036E0350360A2CE1300EE56E00C0C1
:1000E000E9FF01C0F3FF025065EC0DF00F01515123
:1000F000040F006E000E0F015221016E000E0F0161
:100100005321026E00C0E9FF01C0F3FF025039EC39
:100110000DF0036E032A03C0E5FF00C0E9FF01C034
:10012000F3FF025065EC0DF0010E0F01566F0F0149
:10013000576B0F015151040F006E000E0F01522139
:10014000016E000E0F015321026E00C0E9FF01C0D5
:10015000F3FF025039EC0DF0036E03503A0A27E129
:10016000300EE56E00C0E9FF01C0F3FF025065EC00
:100170000DF00F015151030F006E000E0F015221BF
:10018000016E000E0F015321026E00C0E9FF01C095
:10019000F3FF025039EC0DF0036E032A03C0E5FFB4
:1001A00000C0E9FF01C0F3FF025065EC0DF00F0144
:1001B0005151030F006E000E0F015221016E000E0F
:1001C0000F015321026E00C0E9FF01C0F3FF02508E
:1001D00039EC0DF0036E0350360A27E1300EE56E60
:1001E00000C0E9FF01C0F3FF025065EC0DF00F0104
:1001F0005151010F006E000E0F015221016E000ED1
:100200000F015321026E00C0E9FF01C0F3FF02504D
:1002100039EC0DF0036E032A03C0E5FF00C0E9FFCF
:1002200001C0F3FF025065EC0DF00F015151010FB9
:10023000006E000E0F015221016E000E0F015321BE
:10024000026E00C0E9FF01C0F3FF025039EC0DF06F
:10025000036E03503A0A21E1300EE56E00C0E9FF5B
:1002600001C0F3FF025065EC0DF051CF03F052CF07
:1002700004F053CF05F003C0E9FF04C0F3FF0550BD
:1002800039EC0DF0066E062A06C0E5FF03C0E9FF53
:1002900004C0F3FF055065EC0DF051CF03F052CFD1
:1002A00004F053CF05F003C0E9FF04C0F3FF05508D
:1002B00039EC0DF0036E0350320A23E100C0E9FF70
:1002C00001C0F3FF025039EC0DF0036E0350340A05
:1002D00018E151CF03F052CF04F053CF05F0300EA8
:1002E000E56E03C0E9FF04C0F3FF055065EC0DF0B7
:1002F000300EE56E00C0E9FF01C0F3FF025065EC6F
:100300000DF051CF00F052CF01F053CF02F000C0FA
:10031000E9FF01C0F3FF025039EC0DF0006E005010
:10032000330A0FE151CF00F052CF01F053CF02F06A
:10033000300EE56E00C0E9FF01C0F3FF025065EC2E
:100340000DF0E4CF06F0E4CF05F0E4CF04F0E4CF05
:1003500003F0E4CF02F0E4CF01F0E4CF00F0E4CF0B
:10036000D9FF1200E8CFE5FFD8CFE5FFE0CFE5FFEA
:10037000F3CFE5FFF4CFE5FFE9CFE5FFEACFE5FFF7
:10038000FACFE5FFFBCFE5FFD9CFE5FFE1CFD9FFFE
:1003900000C0E5FF01C0E5FF02C0E5FF03C0E5FFC7
:1003A000F0A481D00F015551800F800F03E1020EA0
:1003B0000F01545D12E30F015551800F800F03E1CF
:1003C000030E0F01545D0BE30F015551800F800F99
:1003D00003E1050E0F01545D02E236EC0AF00F0155
:1003E0005551800F800F03E1070E0F01545D09E3A3
:1003F0000F015551800F800F03E1090E0F01545D6D
:1004000024E30F015551800F800F03E10A0E0F0105
:10041000545D09E30F015551800F800F03E10C0E6D
:100420000F01545D12E30F015551800F800F03E15E
:100430000D0E0F01545D31E30F015551800F800FF8
:1004400003E10F0E0F01545D28E20F015451F90F23
:10045000006EFF0E0F015521016E026A01BE026897
:100460000F01515100260F01525101220F0153512A
:10047000022200C0E9FF01C0F3FF025039EC0DF089
:10048000036E032A03C0E5FF00C0E9FF01C0F3FFCC
:10049000025065EC0DF006EC00F0F094010E0F0137
:1004A000586F0F01596BF0A04BD00F01542B02E392
:1004B0000F01552B0F015451020A03E10F01555151
:1004C00001E005D0030E0F01546F0F01556B0F01B2
:1004D0005451050A03E10F01555101E005D0070E03
:1004E0000F01546F0F01556B0F015451090A03E1BD
:1004F0000F01555101E005D00A0E0F01546F0F0195
:10050000556B0F0154510C0A03E10F01555101E0E5
:1005100005D00D0E0F01546F0F01556B0F01545193
:100520000F0A03E10F01555101E004D00F01546B94
:100530000F01556B010E0F01586F0F01596BF090B1
:10054000F2A458D0100E0F015B27000E0F015C23A0
:10055000000E0F015D23000E0F015D5D0BE1050E26
:100560000F015C5D07E1F50E0F015B5D03E1E10E3C
:100570000F015A5DD8A038D01F0E0F015A270A0E5E
:100580000F015B23FA0E0F015C23FF0E0F015D23A9
:10059000006A91B0002A010E001A0050010BF46E9F
:1005A0009150FE0BF410916E0F015151070F006E28
:1005B000000E0F015221016E000E0F015321026E39
:1005C00000C0E9FF01C0F3FF025039EC0DF0036EEB
:1005D000032A03C0E5FF00C0E9FF01C0F3FF02509A
:1005E00065EC0DF006EC00F0010E0F01586F0F01E5
:1005F000596BF294E4CF03F0E4CF02F0E4CF01F0C2
:10060000E4CF00F0E4CFD9FFE4CFFBFFE4CFFAFF63
:10061000E4CFEAFFE4CFE9FFE4CFF4FFE4CFF3FF58
:10062000E4CFE0FFE4CFD8FFE4CFE8FF10002020C4
:10063000202057616B65207570212020202000004C
:1006400020202020202020202020202020202020AA
:100650000000205E00002020205E0000D9CFE5FFD2
:10066000E1CFD9FF00C0E5FF01C0E5FF02C0E5FF13
:1006700003C0E5FF04C0E5FF05C0E5FF06C0E5FFD8
:1006800007C0E5FF08C0E5FF020EE56E000EE56E4F
:10069000F4EC0CF0020EE126480E006E0D0E016E19
:1006A000026A036A00C004F001C005F002C006F04F
:1006B00003C007F0FF0E0026FF0E0122FF0E0222EC
:1006C000FF0E03220450051006100710EBE1006A2C
:1006D00000C001F0026A000E025C02E1100E015C33
:1006E000D8B057D0000E0024016E026A0F0E02220D
:1006F00001C0E9FF02C0EAFFEFCF01F0015019E1AC
:1007000000C001F001C002F0036A000E035C02E1C8
:10071000100E025C0EE2000E0124026E036A0F0E40
:10072000032202C0E9FF03C0EAFF200EEF6E012A98
:10073000E9D7000E0024016E026A0F0E022201C0EA
:10074000E9FF02C0EAFFEFCF01F00150E56E010EB4
:10075000E56EF4EC0CF0020EE126550E016E026A15
:10076000036A046A01C005F002C006F003C007F086
:1007700004C008F0FF0E0126FF0E0222FF0E032226
:10078000FF0E04220550061007100810EBE1002AA6
:100790009FD7C00EE56E000EE56EF4EC0CF0020E75
:1007A000E126550E006E016A026A036A00C004F079
:1007B00001C005F002C006F003C007F0FF0E0026DE
:1007C000FF0E0122FF0E0222FF0E0322045005102D
:1007D00006100710EBE1100E006E00C001F0026A77
:1007E000000E025C02E1200E015CD8B057D0000E72
:1007F0000024016E026A0F0E022201C0E9FF02C04E
:10080000EAFFEFCF01F0015019E100C001F001C093
:1008100002F0036A000E035C02E1200E025C0EE2AD
:10082000000E0124026E036A0F0E032202C0E9FFCC
:1008300003C0EAFF200EEF6E012AE9D7000E002464
:10084000016E026A0F0E022201C0E9FF02C0EAFF38
:10085000EFCF01F00150E56E010EE56EF4EC0CF007
:10086000020EE126550E016E026A036A046A01C097
:1008700005F002C006F003C007F004C008F0FF0E48
:100880000126FF0E0222FF0E0322FF0E0422055056
:10089000061007100810EBE1002A9FD7E4CF08F0FC
:1008A000E4CF07F0E4CF06F0E4CF05F0E4CF04F0A6
:1008B000E4CF03F0E4CF02F0E4CF01F0E4CF00F0A6
:1008C000E4CFD9FF1200D9CFE5FFE1CFD9FF00C0B7
:1008D000E5FF01C0E5FF02C0E5FF03C0E5FF04C07E
:1008E000E5FF05C0E5FF06C0E5FF07C0E5FF08C05E
:1008F000E5FF000EE56E200EE56E200EE56E0F0E94
:10090000E56E000EE56E9DEC0AF0050EE1260F0186
:10091000206B90909092966A999299949990A00EDB
:10092000006E090E016E010E026E036A00C004F033
:1009300001C005F002C006F003C007F0FF0E00265C
:10094000FF0E0122FF0E0222FF0E032204500510AB
:1009500006100710EBE19094030E8D6E000000006E
:10096000006A00C001F0026A000E025C02E1030EA0
:10097000015C39E29080110E016E026A036A046A1A
:1009800001C005F002C006F003C007F004C008F083
:10099000FF0E0126FF0E0222FF0E0322FF0E04228D
:1009A0000550061007100810EBE19090480E016EFC
:1009B0000D0E026E036A046A01C005F002C006F063
:1009C00003C007F004C008F0FF0E0126FF0E02224C
:1009D000FF0E0322FF0E0422055006100710081018
:1009E000EBE1002ABED7380EE56E000EE56EF4ECA2
:1009F0000CF0020EE126550E006E016A026A036ACF
:100A000000C004F001C005F002C006F003C007F00A
:100A1000FF0E0026FF0E0122FF0E0222FF0E032210
:100A20000450051006100710EBE1060EE56E000EEF
:100A3000E56EF4EC0CF0020EE126550E006E016A34
:100A4000026A036A00C004F001C005F002C006F0AB
:100A500003C007F0FF0E0026FF0E0122FF0E022248
:100A6000FF0E03220450051006100710EBE10C0ED8
:100A7000E56E000EE56EF4EC0CF0020EE126550E6C
:100A8000006E016A026A036A00C004F001C005F04A
:100A900002C006F003C007F0FF0E0026FF0E012281
:100AA000FF0E0222FF0E032204500510061007104D
:100AB000EBE1010EE56E000EE56EF4EC0CF0020EBB
:100AC000E126480E006E0D0E016E026A036A00C038
:100AD00004F001C005F002C006F003C007F0FF0EED
:100AE0000026FF0E0122FF0E0222FF0E03220450F9
:100AF000051006100710EBE1E4CF08F0E4CF07F093
:100B0000E4CF06F0E4CF05F0E4CF04F0E4CF03F047
:100B1000E4CF02F0E4CF01F0E4CF00F0E4CFD9FF5E
:100B20001200D9CFE5FFE1CFD9FF00C0E5FF01C03A
:100B3000E5FF02C0E5FF03C0E5FF04C0E5FF05C017
:100B4000E5FF06C0E5FF07C0E5FF08C0E5FF09C0F7
:100B5000E5FF0AC0E5FF0BC0E5FF0CC0E5FF0DC0D7
:100B6000E5FF0EC0E5FF0FC0E5FF10C0E5FF11C0B7
:100B7000E5FF12C0E5FF13C0E5FF14C0E5FF15C097
:100B8000E5FF020EDBCF00F0030EDBCF01F0040E19
:100B9000DBCF02F0050EDBCF03F0060EDBCF04F057
:100BA000070EDBCF05F0080EDBCF06F0090EDBCF1A
:100BB00007F000C008F001C009F002C00AF003C04D
:100BC0000BF004C00CF005C00DF006C00EF007C01D
:100BD0000FF006500710D8B43ED003C010F004C088
:100BE00011F005C012F006C013F007C014F0FF0E9C
:100BF0001326D8A01406135014101DE010C0E9FFEE
:100C000011C0F3FF125039EC0DF0156E102AD8B058
:100C1000112AD8B0122A15C0E5FF00C0E9FF01C0B3
:100C2000F3FF025065EC0DF0002AD8B0012AD8B0CD
:100C3000022A1550DCE110C00BF011C00CF012C0FC
:100C40000DF000C008F001C009F002C00AF013C0A6
:100C50000EF014C00FF00E500F1027E106500710D1
:100C600009E0000EE56E08C0E9FF09C0F3FF0A5075
:100C700065EC0DF00BC000F00CC001F00DC002F0EF
:100C800000C0E9FF01C0F3FF025039EC0DF0066E21
:100C9000002AD8B0012AD8B0022A0650F1E100C0DB
:100CA0000BF001C00CF002C00DF003500B5C036EA2
:100CB00004500C58046EFF0E0326D8A0040604C08E
:100CC000F3FF0350E4CF15F0E4CF14F0E4CF13F0BA
:100CD000E4CF12F0E4CF11F0E4CF10F0E4CF0FF046
:100CE000E4CF0EF0E4CF0DF0E4CF0CF0E4CF0BF046
:100CF000E4CF0AF0E4CF09F0E4CF08F0E4CF07F046
:100D0000E4CF06F0E4CF05F0E4CF04F0E4CF03F045
:100D1000E4CF02F0E4CF01F0E4CF00F0E4CFD9FF5C
:100D20001200D9CFE5FFE1CFD9FF00C0E5FF01C038
:100D3000E5FF02C0E5FF03C0E5FF04C0E5FF05C015
:100D4000E5FF06C0E5FF07C0E5FF08C0E5FF09C0F5
:100D5000E5FF0AC0E5FF0BC0E5FF0CC0E5FF0DC0D5
:100D6000E5FF0EC0E5FF0FC0E5FF020EDBCF00F090
:100D7000030EDBCF01F0040EDBCF02F0050EDBCF5C
:100D800003F0060EDBCF04F0070EDBCF05F0080EF4
:100D9000DBCF06F0200E076E086A06C009F00A6A6B
:100DA0000B6A0C6AE56AE56AE56A0950E56E03506C
:100DB000E56E0250E56E0150E56E0050E56E1DECEB
:100DC00008F00D6E080EE126300E0D263A0E0D5C71
:100DD00002E3270E0D26FF0E0726D8A00806210ED7
:100DE00007240E6E0F0E08200F6E0EC0E9FF0FC015
:100DF000EAFF0DC0EFFF0C50E56E0B50E56E0A5098
:100E0000E56E0950E56E0350E56E0250E56E015047
:100E1000E56E0050E56E3EEC09F0006EF3CF01F098
:100E2000F4CF02F0E9CF03F0080EE12600500110E4
:100E300002100310D8A4B1D707C000F008C001F019
:100E400004C002F005C003F000C004F001C005F0CA
:100E5000002AD8B0012A210E04260F0E052204C054
:100E6000E9FF05C0EAFFEFCF04F002C0E9FF03C0CD
:100E7000EAFF04C0EFFF022AD8B0032A000E015C8B
:100E800002E1200E005CE0E302C0E9FF03C0EAFFDC
:100E9000000EEF6AE4CF0FF0E4CF0EF0E4CF0DF0D8
:100EA000E4CF0CF0E4CF0BF0E4CF0AF0E4CF09F08C
:100EB000E4CF08F0E4CF07F0E4CF06F0E4CF05F08C
:100EC000E4CF04F0E4CF03F0E4CF02F0E4CF01F08C
:100ED000E4CF00F0E4CFD9FF1200D9CFE5FFE1CF96
:100EE000D9FF00C0E5FF01C0E5FF02C0E5FF03C078
:100EF000E5FF04C0E5FF05C0E5FF06C0E5FF010E04
:100F0000006E016A026A036A0350800F800F02E1DB
:100F1000050E025C2EE202500F015125046E0350B3
:100F20000F015221056EE86A03BEE8680F015321E4
:100F3000066E04C0E9FF05C0F3FF065039EC0DF062
:100F4000046E410E0224056E0F0E0320066E05C0CE
:100F5000E9FF06C0EAFFEFCF05F00450051805E0F1
:100F6000006A016A050E026E036A022AD8B0032ADB
:100F7000CBD700500110D8B44BD0000EE56E060E52
:100F8000E56E2E0EE56E000EE56ECBEC09F0040E5C
:100F9000E126000EE56E060EE56E400EE56E100EC3
:100FA000E56ECBEC09F0040EE126006A016A0150FF
:100FB000800F800F02E11E0E005C1DE2026A91B2FA
:100FC000022A010E021A0250010BE844F46E9150FD
:100FD000FD0BF410916E280E026E036A25EC0DF0E5
:100FE000FF0E0226D8A0030602500310F7E1002AE4
:100FF000D8B0012ADCD7006A91B2002A010E001A8B
:101000000050010BE844F46E9150FD0BF410916E0A
:101010000F01566B0F01576BE4CF06F0E4CF05F0DC
:10102000E4CF04F0E4CF03F0E4CF02F0E4CF01F02A
:10103000E4CF00F0E4CFD9FF1200D9CFE5FFE1CF34
:10104000D9FF00C0E5FF01C0E5FF02C0E5FF03C016
:10105000E5FF04C0E5FF05C0E5FF06C0E5FF07C0EA
:10106000E5FF08C0E5FF09C0E5FF0AC0E5FF020E85
:10107000DBCF00F0030EDBCF01F0040EDBCF02F07C
:10108000050EDBCF03F0060EDBCF04F0070EDBCF3F
:1010900005F0080EDBCF06F0090EDBCF07F0086A7B
:1010A000096A0744010B0A6E0AB01BD004500426DB
:1010B0000536063607360750035C08E10650025C29
:1010C00005E10550015C02E10450005C06E2D890A5
:1010D000073206320532043204D0092A09C008F06A
:1010E000E0D70750035C08E10650025C05E10550BB
:1010F000015C02E10450005C08E30450005E05500E
:10110000015A0650025A0750035AD8900732063245
:101110000532043208C009F008060950E2E103C0B4
:10112000E9FF02C0F4FF01C0F3FF0050E4CF0AF072
:10113000E4CF09F0E4CF08F0E4CF07F0E4CF06F005
:10114000E4CF05F0E4CF04F0E4CF03F0E4CF02F005
:10115000E4CF01F0E4CF00F0E4CFD9FF1200D9CF03
:10116000E5FFE1CFD9FF00C0E5FF01C0E5FF02C008
:10117000E5FF03C0E5FF04C0E5FF05C0E5FF020E83
:10118000DBCF00F0030EDBCF01F0040EDBCF02F06B
:10119000036A046A0A0EE56E0E0EE56E100EE56E29
:1011A0000450E56E0350E56E0250E56E0150E56EA9
:1011B00091EC06F0070EE126016A0E0E036E100E8A
:1011C000026E800E046E0450E56E0350E56E025010
:1011D000E56EB4EC0CF0026EF3CF03F0030EE126E3
:1011E00001C004F0056A0550800FF36E0350800FB4
:1011F000F35C02E10250045C1CE200C002F0002A31
:10120000036A000E02260F0E0322100E0124046E44
:10121000056A0E0E052204C0E9FF05C0EAFFEFCF04
:1012200004F002C0E9FF03C0EAFF04C0EFFF012A97
:10123000C4D700C001F0026A000E025C02E1200E79
:10124000015C0BE2016A000E00260F0E012200C0B5
:10125000E9FF01C0EAFF000EEF6E2EEC03F0E4CFD1
:1012600005F0E4CF04F0E4CF03F0E4CF02F0E4CFE4
:1012700001F0E4CF00F0E4CFD9FF1200D9CFE5FFB1
:10128000E1CFD9FF00C0E5FF01C0E5FF02C0E5FFE7
:1012900003C0E5FF04C0E5FF05C0E5FF06C0E5FFAC
:1012A00007C0E5FF08C0E5FF09C0E5FF0AC0E5FF8C
:1012B0000BC0E5FF0CC0E5FF0DC0E5FF020EDBCF64
:1012C00000F0030EDBCF01F0040EDBCF02F0050EC1
:1012D000DBCF03F0060EDBCF04F0070EDBCF05F00B
:1012E000080EDBCF06F0090EDBCF07F0086A096AAB
:1012F0000A6A0B6A200E0C6E0344010B0D6E010E80
:101300000D16005000260136023603360850082616
:1013100009360A360B360D50D8A4088007500B5CEE
:1013200008E106500A5C05E10550095C02E1045041
:10133000085C09E30450085E0550095A06500A5A31
:1013400007500B5A00800C2ED7D703C0E9FF02C00C
:10135000F4FF01C0F3FF0050E4CF0DF0E4CF0CF038
:10136000E4CF0BF0E4CF0AF0E4CF09F0E4CF08F0CB
:10137000E4CF07F0E4CF06F0E4CF05F0E4CF04F0CB
:10138000E4CF03F0E4CF02F0E4CF01F0E4CF00F0CB
:10139000E4CFD9FF1200D9CFE5FFE1CFD9FF00C0DC
:1013A000E5FF01C0E5FF02C0E5FF03C0E5FF04C0A3
:1013B000E5FF05C0E5FF06C0E5FF07C0E5FF020E3B
:1013C000DBCF00F0030EDBCF01F0040EDBCF02F029
:1013D000050EDBCF03F00350E56E0250E56E0150C1
:1013E000E56EB4EC0CF0046EF3CF05F0030EE126CD
:1013F000042A00502008056E066A000E00260F0E13
:1014000006220650066E0050006E800E076E0550D4
:10141000045C02E305C004F0056A0550E56E045063
:10142000E56E0350E56E0250E56E0150E56E075023
:10143000E56E0650E56E0050E56E91EC05F0080E85
:10144000E1262EEC03F0E4CF07F0E4CF06F0E4CF82
:1014500005F0E4CF04F0E4CF03F0E4CF02F0E4CFF2
:1014600001F0E4CF00F0E4CFD9FF1200D9CFE5FFBF
:10147000E1CFD9FF00C0E5FF01C0E5FF02C0E5FFF5
:10148000410E0F015425006E0F0E0F015521016E04
:1014900000C0E9FF01C0EAFFEFCF02F0022A00C05E
:1014A000E9FF01C0EAFF02C0EFFF0F0145513A0A10
:1014B00009E1300E0F01456F0F014429006E005005
:1014C0000F01446F0F014451360A09E1300E0F013C
:1014D000446F42CF00F0002A00500F01426F42CF0C
:1014E00000F000503A0A0AE1300E0F01426F0F017E
:1014F0004129016E01500F01416F16D041CF01F01B
:101500000150320A0BE10050800F4C0F07E3300E00
:101510000F01416F300E0F01426F06D00150330AA8
:1015200003E1300E0F01416FE4CF02F0E4CF01F090
:10153000E4CF00F0E4CFD9FF1200D9CFE5FFE1CF2F
:10154000D9FF00C0E5FF01C0E5FF02C0E5FF03C011
:10155000E5FF04C0E5FF05C0E5FF06C0E5FF07C0E5
:10156000E5FF08C0E5FF09C0E5FF020EDBCF00F094
:10157000030EDBCF01F0040EDBCF02F0050EDBCF54
:1015800003F0060EDBCF04F00150066E0050056E2E
:10159000800E076E03C008F004C009F0FF0E03269A
:1015A000D8A00406085009100FE002C0E5FF05C0EE
:1015B000E9FF06C0F3FF075065EC0DF0052AD8B02F
:1015C000062AD8B0072AE6D7800E026E02C0F4FFC2
:1015D00001C0F3FF0050E4CF09F0E4CF08F0E4CFFE
:1015E00007F0E4CF06F0E4CF05F0E4CF04F0E4CF59
:1015F00003F0E4CF02F0E4CF01F0E4CF00F0E4CF59
:10160000D9FF1200D9CFE5FFE1CFD9FF00C0E5FF38
:1016100001C0E5FF02C0E5FF03C0E5FF04C0E5FF30
:1016200005C0E5FF06C0E5FF020EDBCF00F0030EAC
:10163000DBCF01F0040EDBCF02F0050EDBCF03F0B1
:10164000060EDBCF04F0070EDBCF05F0080EDBCF74
:1016500006F0D88003AED89016E306500A0A13E1CC
:1016600004C0E9FF05C0EAFF2D0EEF6E042AD8B0D2
:10167000052A031E021E011E006C05E1012A03E17A
:10168000022AD8B4032A0650E56E0550E56E0450D0
:10169000E56E0350E56E0250E56E0150E56E0050B8
:1016A000E56E91EC06F0070EE126E4CF06F0E4CFFC
:1016B00005F0E4CF04F0E4CF03F0E4CF02F0E4CF90
:1016C00001F0E4CF00F0E4CFD9FF12000E01006B6F
:1016D0000E01016B0E01026B0E01036B0E01046B18
:1016E0000E01056B0E01066B0E01076B0E01086BF8
:1016F0000E01096B0E010A6B0E010B6B0E010C6BD8
:101700000E010D6B0E010E6B0E010F6B9A909A92EB
:101710009A9493869382D08EF090F08CF19AF28E08
:10172000F086F08AD58A63EC04F0640E006E016ADC
:1017300025EC0DF0FF0E0026D8A001060050011088
:10174000F7E11BEC0CF0F184F294D59CD586F28A7B
:10175000D58E0F015851010A03E10F01595101E0E3
:10176000F8D70F01586B0F01596B1BEC0CF00F01F0
:101770005651010A03E10F01575101E0EAD76DEC20
:1017800007F0E7D71200D9CFE5FFE1CFD9FF00C0BE
:10179000E5FF01C0E5FF02C0E5FF03C0E5FF04C0AF
:1017A000E5FF05C0E5FF06C0E5FF07C0E5FF010E48
:1017B000E56E000EE56EF4EC0CF0020EE126480E2C
:1017C000006E0D0E016E026A036A00C004F001C0D3
:1017D00005F002C006F003C007F0FF0E0026FF0E62
:1017E0000122FF0E0222FF0E0322045005100610F4
:1017F0000710EBE1000EE56E200EE56E200EE56EA3
:101800000F0EE56E000EE56E9DEC0AF0050EE1266A
:10181000E4CF07F0E4CF06F0E4CF05F0E4CF04F026
:10182000E4CF03F0E4CF02F0E4CF01F0E4CF00F026
:10183000E4CFD9FF1200D9CFE5FFE1CFD9FF00C037
:10184000E5FF01C0E5FF02C0E5FF0F0E016E410E8E
:10185000006E800E026E0250E56E0150E56E005083
:10186000E56E000EE56ECBEC09F0040EE1260F01EB
:1018700054510F01551112E10F015451006E0F0E1A
:101880000026000EE56E060EE56E520EE56E005067
:10189000E56ECBEC09F0040EE12611D00F01545196
:1018A000006E0D0E0026000EE56E060EE56E560E5D
:1018B000E56E0050E56ECBEC09F0040EE126E4CFB6
:1018C00002F0E4CF01F0E4CF00F0E4CFD9FF120042
:1018D000DE0EF66E1A0EF76E000EF86E0900F55069
:1018E000056E0900F550066E055002E106503BE01A
:1018F0000900F550006E0900F550016E0900F55021
:10190000026E09000900F550E96E0900F550EA6E13
:10191000090009000900F550036E0900F550046E36
:1019200009000900F6CF07F0F7CF08F0F8CF09F06B
:1019300000C0F6FF01C0F7FF02C0F8FF035002E14C
:10194000045007E00900F550EE6E0306F8E20406C5
:10195000F9D707C0F6FF08C0F7FF09C0F8FF050672
:10196000C4E20606C5D71200D9CFE5FFE1CFD9FF03
:1019700000C0E5FF01C0E5FF02C0E5FF03C0E5FFD1
:1019800004C0E5FF05C0E5FF020EDBCF00F0030E4B
:10199000DBCF01F0040EDBCF02F0036A046A00C063
:1019A000E9FF01C0F3FF025039EC0DF0056E002A8B
:1019B000D8B0012AD8B0022A055004E0032AD8B0D2
:1019C000042AEDD704C0F3FF0350E4CF05F0E4CFC1
:1019D00004F0E4CF03F0E4CF02F0E4CF01F0E4CF71
:1019E00000F0E4CFD9FF1200D9CFE5FFE1CFD9FF56
:1019F00000C0E5FF01C0E5FF020EDBCF00F0030EE3
:101A0000DBCF01F0966A9994999290920050010B65
:101A1000E844E844F46E9050FB0BF410906E01C063
:101A20008DFF00000000908000000000000000001A
:101A3000000000000000000000009090E4CF01F0E2
:101A4000E4CF00F0E4CFD9FF1200D9CFE5FFE1CF1A
:101A5000D9FFD80ED76EF00ED66ED59ED59CD59AEE
:101A6000D586F294D58EF2A4FED7F294E4CFD9FFB6
:101A70001200E8AE04D0F3CFEAFFEE501200E8BC4B
:101A800008D0E9CFF6FFF3CFF7FFF86E0900F55065
:101A90001200120030303A3030202030303A3030EE
:101AA0003A303000480F80000000000100000000C4
:101AB000000017EEFFF027EEFFF0F86AA68EA69C56
:101AC00068EC0CF066EC0BF0FFD7E8AE05D0F3CF76
:101AD000EAFFE4CFEEFF1200E8AC120012000100B2
:0C1AE000941A0000410F00001E000000DE
:00000001FF
