:020000040000FA
:10000000DFEF08F0D9CFE5FFE1CFD9FF00C0E5FF72
:1000100001C0E5FF02C0E5FF03C0E5FF04C0E5FF46
:1000200005C0E5FF06C0E5FF07C0E5FF08C0E5FF26
:10003000020EE56E000EE56E9DEC08F0020EE12664
:10004000480E006E0D0E016E026A036A00C004F0D5
:1000500001C005F002C006F003C007F0FF0E002645
:10006000FF0E0122FF0E0222FF0E03220450051094
:1000700006100710EBE1006A00C001F0026A000EF2
:10008000025C02E1100E015CD8B057D0000E0024D3
:10009000016E026A0F0E022201C0E9FF02C0EAFFF0
:1000A000EFCF01F0015019E100C001F001C002F0F2
:1000B000036A000E035C02E1100E025C0EE2000E09
:1000C0000124026E036A0F0E032202C0E9FF03C07F
:1000D000EAFF200EEF6E012AE9D7000E0024016E20
:1000E000026A0F0E022201C0E9FF02C0EAFFEFCF51
:1000F00001F00150E56E010EE56E9DEC08F0020E78
:10010000E126550E016E026A036A046A01C005F019
:1001100002C006F003C007F004C008F0FF0E01267D
:10012000FF0E0222FF0E0322FF0E042205500610CE
:1001300007100810EBE1002A9FD7C00EE56E000EF5
:10014000E56E9DEC08F0020EE126550E006E016A88
:10015000026A036A00C004F001C005F002C006F0A4
:1001600003C007F0FF0E0026FF0E0122FF0E022241
:10017000FF0E03220450051006100710EBE1100ECD
:10018000006E00C001F0026A000E025C02E1200E67
:10019000015CD8B057D0000E0024016E026A0F0E29
:1001A000022201C0E9FF02C0EAFFEFCF01F00150D7
:1001B00019E100C001F001C002F0036A000E035C07
:1001C00002E1200E025C0EE2000E0124026E036AC0
:1001D0000F0E032202C0E9FF03C0EAFF200EEF6EFC
:1001E000012AE9D7000E0024016E026A0F0E0222D6
:1001F00001C0E9FF02C0EAFFEFCF01F00150E56E58
:10020000010EE56E9DEC08F0020EE126550E016E22
:10021000026A036A046A01C005F002C006F003C066
:1002200007F004C008F0FF0E0126FF0E0222FF0EA9
:100230000322FF0E04220550061007100810EBE100
:10024000002A9FD7E4CF08F0E4CF07F0E4CF06F010
:10025000E4CF05F0E4CF04F0E4CF03F0E4CF02F004
:10026000E4CF01F0E4CF00F0E4CFD9FF1200D9CF02
:10027000E5FFE1CFD9FF00C0E5FF01C0E5FF02C007
:10028000E5FF03C0E5FF04C0E5FF05C0E5FF06C0CC
:10029000E5FF07C0E5FF08C0E5FF000EE56E200E94
:1002A000E56E200EE56E0F0EE56E000EE56EF0ECCD
:1002B00006F0050EE1260F01206B90909092966A51
:1002C000999299949990A00E006E090E016E010EFC
:1002D000026E036A00C004F001C005F002C006F01F
:1002E00003C007F0FF0E0026FF0E0122FF0E0222C0
:1002F000FF0E03220450051006100710EBE1909446
:10030000030E8D6E00000000006A00C001F0026A5A
:10031000000E025C02E1030E015C39E29080110ED6
:10032000016E026A036A046A01C005F002C006F0A9
:1003300003C007F004C008F0FF0E0126FF0E0222E2
:10034000FF0E0322FF0E04220550061007100810AE
:10035000EBE19090480E016E0D0E026E036A046A86
:1003600001C005F002C006F003C007F004C008F0A9
:10037000FF0E0126FF0E0222FF0E0322FF0E0422B3
:100380000550061007100810EBE1002ABED7380E02
:10039000E56E000EE56E9DEC08F0020EE126550EAE
:1003A000006E016A026A036A00C004F001C005F031
:1003B00002C006F003C007F0FF0E0026FF0E012268
:1003C000FF0E0222FF0E0322045005100610071034
:1003D000EBE1060EE56E000EE56E9DEC08F0020EF8
:1003E000E126550E006E016A026A036A00C004F03D
:1003F00001C005F002C006F003C007F0FF0E0026A2
:10040000FF0E0122FF0E0222FF0E032204500510F0
:1004100006100710EBE10C0EE56E000EE56E9DEC8C
:1004200008F0020EE126550E006E016A026A036AA8
:1004300000C004F001C005F002C006F003C007F0E0
:10044000FF0E0026FF0E0122FF0E0222FF0E0322E6
:100450000450051006100710EBE1010EE56E000ECA
:10046000E56E9DEC08F0020EE126480E006E0D0EC2
:10047000016E026A036A00C004F001C005F002C008
:1004800006F003C007F0FF0E0026FF0E0122FF0E4C
:100490000222FF0E03220450051006100710EBE1A4
:1004A000E4CF08F0E4CF07F0E4CF06F0E4CF05F0A6
:1004B000E4CF04F0E4CF03F0E4CF02F0E4CF01F0A6
:1004C000E4CF00F0E4CFD9FF1200D9CFE5FFE1CFB0
:1004D000D9FF00C0E5FF01C0E5FF02C0E5FF03C092
:1004E000E5FF04C0E5FF05C0E5FF06C0E5FF07C066
:1004F000E5FF08C0E5FF09C0E5FF0AC0E5FF0BC046
:10050000E5FF0CC0E5FF0DC0E5FF0EC0E5FF0FC025
:10051000E5FF10C0E5FF11C0E5FF12C0E5FF13C005
:10052000E5FF14C0E5FF15C0E5FF020EDBCF00F0CC
:10053000030EDBCF01F0040EDBCF02F0050EDBCFA4
:1005400003F0060EDBCF04F0070EDBCF05F0080E3C
:10055000DBCF06F0090EDBCF07F000C008F001C0CA
:1005600009F002C00AF003C00BF004C00CF005C093
:100570000DF006C00EF007C00FF006500710D8B4FB
:100580003ED003C010F004C011F005C012F006C048
:1005900013F007C014F0FF0E1326D8A01406135052
:1005A00014101DE010C0E9FF11C0F3FF1250CEEC93
:1005B00008F0156E102AD8B0112AD8B0122A15C02A
:1005C000E5FF00C0E9FF01C0F3FF0250EBEC08F0CB
:1005D000002AD8B0012AD8B0022A1550DCE110C098
:1005E0000BF011C00CF012C00DF000C008F001C0FB
:1005F00009F002C00AF013C00EF014C00FF00E5044
:100600000F1027E10650071009E0000EE56E08C044
:10061000E9FF09C0F3FF0A50EBEC08F00BC000F053
:100620000CC001F00DC002F000C0E9FF01C0F3FFF3
:100630000250CEEC08F0066E002AD8B0012AD8B0DD
:10064000022A0650F1E100C00BF001C00CF002C01C
:100650000DF003500B5C036E04500C58046EFF0E3B
:100660000326D8A0040604C0F3FF0350E4CF15F01E
:10067000E4CF14F0E4CF13F0E4CF12F0E4CF11F0A4
:10068000E4CF10F0E4CF0FF0E4CF0EF0E4CF0DF0A4
:10069000E4CF0CF0E4CF0BF0E4CF0AF0E4CF09F0A4
:1006A000E4CF08F0E4CF07F0E4CF06F0E4CF05F0A4
:1006B000E4CF04F0E4CF03F0E4CF02F0E4CF01F0A4
:1006C000E4CF00F0E4CFD9FF1200D9CFE5FFE1CFAE
:1006D000D9FF00C0E5FF01C0E5FF02C0E5FF03C090
:1006E000E5FF04C0E5FF05C0E5FF06C0E5FF07C064
:1006F000E5FF08C0E5FF09C0E5FF0AC0E5FF0BC044
:10070000E5FF0CC0E5FF0DC0E5FF0EC0E5FF0FC023
:10071000E5FF020EDBCF00F0030EDBCF01F0040E8D
:10072000DBCF02F0050EDBCF03F0060EDBCF04F0CB
:10073000070EDBCF05F0080EDBCF06F0200E076EAC
:10074000086A06C009F00A6A0B6A0C6AE56AE56A7B
:10075000E56A0950E56E0350E56E0250E56E015002
:10076000E56E0050E56EE4EC04F00D6E080EE12637
:10077000300E0D263A0E0D5C02E3270E0D26FF0EFD
:100780000726D8A00806210E07240E6E0F0E08209B
:100790000F6E0EC0E9FF0FC0EAFF0DC0EFFF0C5057
:1007A000E56E0B50E56E0A50E56E0950E56E03509C
:1007B000E56E0250E56E0150E56E0050E56E76EC98
:1007C00005F0006EF3CF01F0F4CF02F0E9CF03F0B3
:1007D000080EE1260050011002100310D8A4B1D772
:1007E00007C000F008C001F004C002F005C003F02B
:1007F00000C004F001C005F0002AD8B0012A210E83
:1008000004260F0E052204C0E9FF05C0EAFFEFCF62
:1008100004F002C0E9FF03C0EAFF04C0EFFF022AB0
:10082000D8B0032A000E015C02E1200E005CE0E378
:1008300002C0E9FF03C0EAFF000EEF6AE4CF0FF049
:10084000E4CF0EF0E4CF0DF0E4CF0CF0E4CF0BF0EA
:10085000E4CF0AF0E4CF09F0E4CF08F0E4CF07F0EA
:10086000E4CF06F0E4CF05F0E4CF04F0E4CF03F0EA
:10087000E4CF02F0E4CF01F0E4CF00F0E4CFD9FF01
:100880001200D9CFE5FFE1CFD9FF00C0E5FF01C0DD
:10089000E5FF02C0E5FF03C0E5FF04C0E5FF05C0BA
:1008A000E5FF020EDBCF00F0030EDBCF01F0040EFC
:1008B000DBCF02F0036A046A0A0EE56E0F0EE56EE6
:1008C000410EE56E0450E56E0350E56E0250E56E94
:1008D0000150E56E65EC03F0070EE126016A0F0E8C
:1008E000036E410E026E800E046E0450E56E0350DE
:1008F000E56E0250E56E5DEC08F0026EF3CF03F09A
:10090000030EE12601C004F0056A0550800FF36E66
:100910000350800FF35C02E10250045C1CE200C053
:1009200002F0002A036A000E02260F0E0322410E77
:100930000124046E056A0F0E052204C0E9FF05C0FC
:10094000EAFFEFCF04F002C0E9FF03C0EAFF04C0F2
:10095000EFFF012AC4D700C001F0026A000E025C5A
:1009600002E1200E015C0BE2016A000E00260F0E70
:10097000012200C0E9FF01C0EAFF000EEF6E02ECA9
:1009800000F0E4CF05F0E4CF04F0E4CF03F0E4CFCF
:1009900002F0E4CF01F0E4CF00F0E4CFD9FF120081
:1009A00054657374206F662045746865726E657453
:1009B0002062756666657200202020202020507518
:1009C0007368204275743100D9CFE5FFE1CFD9FFBC
:1009D00000C0E5FF01C0E5FF02C0E5FF03C0E5FF81
:1009E00004C0E5FF05C0E5FF06C0E5FF07C0E5FF61
:1009F00008C0E5FF09C0E5FF0AC0E5FF020EDBCF36
:100A000000F0030EDBCF01F0040EDBCF02F0050E89
:100A1000DBCF03F0060EDBCF04F0070EDBCF05F0D3
:100A2000080EDBCF06F0090EDBCF07F0086A096A73
:100A30000744010B0A6E0AB01BD004500426053689
:100A4000063607360750035C08E10650025C05E1F4
:100A50000550015C02E10450005C06E2D8900732C8
:100A600006320532043204D0092A09C008F0E0D762
:100A70000750035C08E10650025C05E10550015C8B
:100A800002E10450005C08E30450005E0550015A86
:100A90000650025A0750035AD890073206320532E0
:100AA000043208C009F008060950E2E103C0E9FF7A
:100AB00002C0F4FF01C0F3FF0050E4CF0AF0E4CF1E
:100AC00009F0E4CF08F0E4CF07F0E4CF06F0E4CF7C
:100AD00005F0E4CF04F0E4CF03F0E4CF02F0E4CF7C
:100AE00001F0E4CF00F0E4CFD9FF1200D9CFE5FF49
:100AF000E1CFD9FF00C0E5FF01C0E5FF02C0E5FF7F
:100B000003C0E5FF04C0E5FF05C0E5FF06C0E5FF43
:100B100007C0E5FF08C0E5FF09C0E5FF0AC0E5FF23
:100B20000BC0E5FF0CC0E5FF0DC0E5FF020EDBCFFB
:100B300000F0030EDBCF01F0040EDBCF02F0050E58
:100B4000DBCF03F0060EDBCF04F0070EDBCF05F0A2
:100B5000080EDBCF06F0090EDBCF07F0086A096A42
:100B60000A6A0B6A200E0C6E0344010B0D6E010E17
:100B70000D160050002601360236033608500826AE
:100B800009360A360B360D50D8A4088007500B5C86
:100B900008E106500A5C05E10550095C02E10450D9
:100BA000085C09E30450085E0550095A06500A5AC9
:100BB00007500B5A00800C2ED7D703C0E9FF02C0A4
:100BC000F4FF01C0F3FF0050E4CF0DF0E4CF0CF0D0
:100BD000E4CF0BF0E4CF0AF0E4CF09F0E4CF08F063
:100BE000E4CF07F0E4CF06F0E4CF05F0E4CF04F063
:100BF000E4CF03F0E4CF02F0E4CF01F0E4CF00F063
:100C0000E4CFD9FF12009A909A929A94938637EC87
:100C100001F0100E006E980E016E020E026E036A55
:100C200000C004F001C005F002C006F003C007F0E8
:100C3000FF0E0026FF0E0122FF0E0222FF0E0322EE
:100C40000450051006100710EBE1050E0E01E26FCF
:100C50000E01E36B310E616E320E616E330E616E0A
:100C6000340E616E350E616E616A000EE56E090E1E
:100C7000E56EA00EE56E000EE56E85EC06F0040E46
:100C8000E126000EE56E090EE56EB80EE56E100E5B
:100C9000E56E85EC06F0040EE126050E7A6E7B6AA1
:100CA000100E006E016A0150800F800F02E1150ED8
:100CB000005C10E2000E0024026E0F0E0120036E95
:100CC00002C0E9FF03C0EAFF61CFEFFF002AD8B0FE
:100CD000012AE9D702EC00F081B608D091CF00F0EC
:100CE000F80E0016070E0010916E02D0F80E911645
:100CF000E80E006E030E016EFF0E0026D8A001065E
:100D000000500110F9E1E8D71200D9CFE5FFE1CF9B
:100D1000D9FF00C0E5FF01C0E5FF02C0E5FF03C049
:100D2000E5FF04C0E5FF05C0E5FF06C0E5FF07C01D
:100D3000E5FF020EDBCF00F0030EDBCF01F0040E67
:100D4000DBCF02F0050EDBCF03F00350E56E02505F
:100D5000E56E0150E56E5DEC08F0046EF3CF05F032
:100D6000030EE126042A00502008056E066A000ED4
:100D700000260F0E06220650066E0050006E800EF2
:100D8000076E0550045C02E305C004F0056A0550D7
:100D9000E56E0450E56E0350E56E0250E56E0150BD
:100DA000E56E0750E56E0650E56E0050E56E65ECA9
:100DB00002F0080EE12602EC00F0E4CF07F0E4CFE9
:100DC00006F0E4CF05F0E4CF04F0E4CF03F0E4CF85
:100DD00002F0E4CF01F0E4CF00F0E4CFD9FF12003D
:100DE000D9CFE5FFE1CFD9FF00C0E5FF01C0E5FFA6
:100DF00002C0E5FF03C0E5FF04C0E5FF05C0E5FF55
:100E000006C0E5FF07C0E5FF08C0E5FF09C0E5FF34
:100E1000020EDBCF00F0030EDBCF01F0040EDBCFC0
:100E200002F0050EDBCF03F0060EDBCF04F001501D
:100E3000066E0050056E800E076E03C008F004C0F9
:100E400009F0FF0E0326D8A00406085009100FE091
:100E500002C0E5FF05C0E9FF06C0F3FF0750EBEC59
:100E600008F0052AD8B0062AD8B0072AE6D7800E9F
:100E7000026E02C0F4FF01C0F3FF0050E4CF09F09E
:100E8000E4CF08F0E4CF07F0E4CF06F0E4CF05F0BC
:100E9000E4CF04F0E4CF03F0E4CF02F0E4CF01F0BC
:100EA000E4CF00F0E4CFD9FF1200D9CFE5FFE1CFC6
:100EB000D9FF00C0E5FF01C0E5FF02C0E5FF03C0A8
:100EC000E5FF04C0E5FF05C0E5FF06C0E5FF020E33
:100ED000DBCF00F0030EDBCF01F0040EDBCF02F01E
:100EE000050EDBCF03F0060EDBCF04F0070EDBCFE1
:100EF00005F0080EDBCF06F0D88003AED89016E3DD
:100F000006500A0A13E104C0E9FF05C0EAFF2D0EEE
:100F1000EF6E042AD8B0052A031E021E011E006CC3
:100F200005E1012A03E1022AD8B4032A0650E56E3E
:100F30000550E56E0450E56E0350E56E0250E56E17
:100F40000150E56E0050E56E65EC03F0070EE126FA
:100F5000E4CF06F0E4CF05F0E4CF04F0E4CF03F0F3
:100F6000E4CF02F0E4CF01F0E4CF00F0E4CFD9FF0A
:100F70001200D9CFE5FFE1CFD9FF00C0E5FF01C0E6
:100F8000E5FF02C0E5FF03C0E5FF04C0E5FF05C0C3
:100F9000E5FF06C0E5FF07C0E5FF010EE56E000EA8
:100FA000E56E9DEC08F0020EE126480E006E0D0E77
:100FB000016E026A036A00C004F001C005F002C0BD
:100FC00006F003C007F0FF0E0026FF0E0122FF0E01
:100FD0000222FF0E03220450051006100710EBE159
:100FE000000EE56E200EE56E200EE56E0F0EE56E2E
:100FF000000EE56EF0EC06F0050EE126E4CF07F0FA
:10100000E4CF06F0E4CF05F0E4CF04F0E4CF03F042
:10101000E4CF02F0E4CF01F0E4CF00F0E4CFD9FF59
:101020001200EA0EF66E110EF76E000EF86E090051
:10103000F550056E0900F550066E055002E10650A8
:101040003BE00900F550006E0900F550016E090003
:10105000F550026E09000900F550E96E0900F550DF
:10106000EA6E090009000900F550036E0900F55009
:10107000046E09000900F6CF07F0F7CF08F0F8CFAB
:1010800009F000C0F6FF01C0F7FF02C0F8FF0350EF
:1010900002E1045007E00900F550EE6E0306F8E2A5
:1010A0000406F9D707C0F6FF08C0F7FF09C0F8FF2C
:1010B0000506C4E20606C5D71200D9CFE5FFE1CF89
:1010C000D9FF00C0E5FF01C0E5FF02C0E5FF03C096
:1010D000E5FF04C0E5FF05C0E5FF020EDBCF00F031
:1010E000030EDBCF01F0040EDBCF02F0036A046ACB
:1010F00000C0E9FF01C0F3FF0250CEEC08F0056E1E
:10110000002AD8B0012AD8B0022A055004E0032AE8
:10111000D8B0042AEDD704C0F3FF0350E4CF05F0A4
:10112000E4CF04F0E4CF03F0E4CF02F0E4CF01F029
:10113000E4CF00F0E4CFD9FF1200D9CFE5FFE1CF33
:10114000D9FF00C0E5FF01C0E5FF020EDBCF00F0D4
:10115000030EDBCF01F0966A999499929092005019
:10116000010BE844E844F46E9050FB0BF410906ED1
:1011700001C08DFF00000000908000000000000012
:101180000000000000000000000000009090E4CF8C
:1011900001F0E4CF00F0E4CFD9FF1200E8AE04D0B4
:1011A000F3CFEAFFEE501200E8BC08D0E9CFF6FF1B
:1011B000F3CFF7FFF86E0900F5501200120017EE9A
:1011C000FFF027EEFFF0F86AA68EA69C11EC08F05F
:1011D00003EC06F0FFD7E8AE05D0F3CFEAFFE4CF8B
:1011E000EEFF1200E8AC120012000100F81100003E
:0A11F000470F00000100000000009E
:00000001FF
